{
  "contractName": "Resume",
  "abi": [
    {
      "constant": true,
      "inputs": [],
      "name": "resumeAscii",
      "outputs": [
        {
          "name": "",
          "type": "string"
        }
      ],
      "payable": false,
      "stateMutability": "view",
      "type": "function"
    },
    {
      "constant": true,
      "inputs": [],
      "name": "owner",
      "outputs": [
        {
          "name": "",
          "type": "address"
        }
      ],
      "payable": false,
      "stateMutability": "view",
      "type": "function"
    },
    {
      "constant": false,
      "inputs": [
        {
          "name": "updates",
          "type": "string"
        }
      ],
      "name": "DeployAscii",
      "outputs": [],
      "payable": false,
      "stateMutability": "nonpayable",
      "type": "function"
    },
    {
      "constant": true,
      "inputs": [],
      "name": "GetResume",
      "outputs": [
        {
          "name": "",
          "type": "string"
        }
      ],
      "payable": false,
      "stateMutability": "nonpayable",
      "type": "constructor"
    },
    {
      "inputs": [],
      "payable": false,
      "stateMutability": "nonpayable",
      "type": "constructor"
    }
  ],
  "bytecode": "0x6060604052341561000f57600080fd5b336000806101000a81548173ffffffffffffffffffffffffffffffffffffffff021916908373ffffffffffffffffffffffffffffffffffffffff1602179055506103a58061005e6000396000f300606060405260043610610057576000357c0100000000000000000000000000000000000000000000000000000000900463ffffffff16806316af40a11461005c5780638da5cb5b146100ea578063b190e1ed1461013f575b600080fd5b341561006757600080fd5b61006f61019c565b6040518080602001828103825283818151815260200191508051906020019080838360005b838110156100af578082015181840152602081019050610094565b50505050905090810190601f1680156100dc5780820380516001836020036101000a031916815260200191505b509250505060405180910390f35b34156100f557600080fd5b6100fd61023a565b604051808273ffffffffffffffffffffffffffffffffffffffff1673ffffffffffffffffffffffffffffffffffffffff16815260200191505060405180910390f35b341561014a57600080fd5b61019a600480803590602001908201803590602001908080601f0160208091040260200160405190810160405280939291908181526020018383808284378201915050505050509190505061025f565b005b60018054600181600116156101000203166002900480601f0160208091040260200160405190810160405280929190818152602001828054600181600116156101000203166002900480156102325780601f1061020757610100808354040283529160200191610232565b820191906000526020600020905b81548152906001019060200180831161021557829003601f168201915b505050505081565b6000809054906101000a900473ffffffffffffffffffffffffffffffffffffffff1681565b6000809054906101000a900473ffffffffffffffffffffffffffffffffffffffff1673ffffffffffffffffffffffffffffffffffffffff163373ffffffffffffffffffffffffffffffffffffffff161415156102ba57600080fd5b80600190805190602001906102d09291906102d4565b5050565b828054600181600116156101000203166002900490600052602060002090601f016020900481019282601f1061031557805160ff1916838001178555610343565b82800160010185558215610343579182015b82811115610342578251825591602001919060010190610327565b5b5090506103509190610354565b5090565b61037691905b8082111561037257600081600090555060010161035a565b5090565b905600a165627a7a72305820d2721a9dad6698227b27f513cd72d565d4a11d316658928ae21b05b1e3788aaa0029",
  "source": "pragma solidity ^0.4.17; \ncontract Resume {\n    address public owner;\n    string public resumeAscii;\n\n    modifier restricted() {\n        if (msg.sender != owner) revert();\n        _;\n    }\n\n    function Resume() public {\n        owner = msg.sender;\n    }\n\n    function DeployAscii(string updates) public restricted\n    {\n        resumeAscii = updates;\n    }\n}\n",
  "sourcePath": "/home/jim/EthDev/Resume/contracts/Resume.sol",
  "compiler": {
    "name": "solc",
    "version": "0.4.18+commit.9cf6e910.Emscripten.clang"
  },
  "schemaVersion": "1.0.1",
  "updatedAt": "2017-12-16T21:34:31.715Z"
}